:1000000000560020356D0000956C0000A56C0000C6
:10001000BD6C0000D56C0000ED6C0000000000001D
:10002000000000000000000000000000056D00005E
:10003000156D000000000000256D00001D6E000021
:100040007D6C00000000000000000000B51F0100F2
:10005000F11E0100611F010000000000000000000F
:10006000F54D000001020100E10101002D20010019
:100070000000000000000000000000004D20010012
:100080002DE9F843054689464FF00108154E164CF8
:10009000164F12E0236943F00403236187F832808E
:1000A000BFF34F8F00BF30BF87F83200236923F0C2
:1000B00004032361BFF34F8F62B600F01DF872B6E0
:1000C000735D33B900F014F80028E3D000BF30BFEF
:1000D000F2E700237355B9F1000F00D0C84762B6AC
:1000E000BDE8F8830C24002000ED00E00000105073
:1000F0005FF800F0254D00005FF800F041050100B9
:10010000FFFFFFFFFFFFFFFFFFFFFFFFFFFFFFFFFF
:10011000FFFFFFFFFFFFFFFFFFFFFFFFFFFFFFFFEF
:10012000FFFFFFFFFFFFFFFFFFFFFFFFFFFFFFFFDF
:10013000FFFFFFFFFFFFFFFFFFFFFFFFFFFFFFFFCF
:10014000FFFFFFFFFFFFFFFFFFFFFFFFFFFFFFFFBF
:10015000FFFFFFFFFFFFFFFFFFFFFFFFFFFFFFFFAF
:10016000FFFFFFFFFFFFFFFFFFFFFFFFFFFFFFFF9F
:10017000FFFFFFFFFFFFFFFFFFFFFFFFFFFFFFFF8F
:10018000FFFFFFFFFFFFFFFFFFFFFFFFFFFFFFFF7F
:10019000FFFFFFFFFFFFFFFFFFFFFFFFFFFFFFFF6F
:1001A000FFFFFFFFFFFFFFFFFFFFFFFFFFFFFFFF5F
:1001B000FFFFFFFFFFFFFFFFFFFFFFFFFFFFFFFF4F
:1001C000FFFFFFFFFFFFFFFFFFFFFFFFFFFFFFFF3F
:1001D000FFFFFFFFFFFFFFFFFFFFFFFFFFFFFFFF2F
:1001E000FFFFFFFFFFFFFFFFFFFFFFFFFFFFFFFF1F
:1001F000FFFFFFFFFFFFFFFFFFFFFFFFFFFFFFFF0F
:10020000FFFFFFFFFFFFFFFFFFFFFFFFFFFFFFFFFE
:10021000FFFFFFFFFFFFFFFFFFFFFFFFFFFFFFFFEE
:10022000FFFFFFFFFFFFFFFFFFFFFFFFFFFFFFFFDE
:10023000FFFFFFFFFFFFFFFFFFFFFFFFFFFFFFFFCE
:10024000FFFFFFFFFFFFFFFFFFFFFFFFFFFFFFFFBE
:10025000FFFFFFFFFFFFFFFFFFFFFFFFFFFFFFFFAE
:10026000FFFFFFFFFFFFFFFFFFFFFFFFFFFFFFFF9E
:10027000FFFFFFFFFFFFFFFFFFFFFFFFFFFFFFFF8E
:10028000704700BF034613F8012B002AFBD1181A50
:1002900001387047004870479CE3010037207047E1
:1002A0000320704708B506F081FC08BD08B506F0CC
:1002B000E1FC43690148984708BD00BF9CE3010089
:1002C00010B50C4611461A46012807D010B1022875
:1002D0000BD010BDE0B200F047F8FAE7BDF80830E7
:1002E000C9B2E0B200F082F8F3E7E0B200F046F9FC
:1002F000EFE700BF054B00229A80DA805A819A818D
:10030000B42119811A765A769A76704738250020DA
:10031000014B1878704700BF3825002010B4044600
:10032000034B0FCB84E80F00204610BC704700BF82
:100330003C2500200346054901F114024869186074
:10034000098B927999809A71184670473825002058
:10035000044B187E012803D0987E003018BF01207E
:10036000704700BF3825002010B504461D4B1B7890
:1003700013F0030F02D010F00C0F15D114F0030F7F
:100380001CD113F0080F02D014F0040F22D113F087
:10039000040F15D014F0080F12D0124B00229A80CF
:1003A000DA80B4221A810BE006F000FC02690D4BE2
:1003B0001A61FFF79FFF00F019F901E0FFF79AFFBC
:1003C000084B1C70084C204600F08AFE204600F0C6
:1003D00037FB10BD034B00229A80DA80B4221A81C9
:1003E000EEE700BF38250020A4E3010010B5044665
:1003F00000F09EFF042C00D010BDFFF789FF10F025
:100400000C0F05D000F0A5FF4368984700F0F8F8FE
:10041000564C204600F0B2FE204600F0B7FB544B8D
:100420001A78042A30D0082A46D0514B5B89B3F59C
:10043000616F05D34E4B0021598199890131998112
:100440004B4B99894EF66023994250D0484BD9883E
:100450004EF6602399424ED0454B99884EF6602364
:1004600099424CD012F0080F4DD1414B1B8BB3F584
:10047000807F76D03E4B9B7E13B1013B3C4A937606
:100480003B4B1A7E5A76B7E73949CB8801339BB28A
:10049000CB803849A1FB0301490901EB8101A3EBA2
:1004A000C1039BB2002BC0D1314B59890131598115
:1004B000196901311961B8E72D490B89013B0B819D
:1004C0008B8801339BB28B802B49A1FB0301490927
:1004D000C1EB0111A3EB81039BB2002BA5D1244BEF
:1004E0005989013159811969013119619DE7204B01
:1004F00000219981AAE71E4B0021D980ACE71C4B53
:1005000000219980AEE700F024FF43689847036814
:10051000984760B9164B1B7813F0080FA5D0134805
:1005200000F066FE78B1124BB4221A819DE700F00C
:1005300010FF4368984700F0ACFD0128EAD10C4B4E
:10054000B4221A81E6E70A4B1B7813F0080F8CD00F
:10055000074B1B89002B88D106F08CFB036898475A
:1005600083E7034B06229A768AE700BFA4E30100E3
:1005700038250020CDCCCCCC8988888810B50728B8
:1005800019D8DFE800F019041D201823262C06F0E6
:100590000DFB044606F06EFBC3684FF48062002139
:1005A00020469847FFF7A6FE0E4800F099FD04F19B
:1005B000F00000F032FA10BD0A4800F0B5FDFAE78D
:1005C000094B1975F7E7084B5975F4E7064B997510
:1005D000F1E7054BD975034800F082FDEBE7024BCC
:1005E0001976E8E7A4E301003825002008B5882241
:1005F0000021024819F09DFD08BD00BF54250020D0
:100600002DE9F04F85B080460022904911F8323034
:100610006FF3C71301F8323001EBC20358786FF360
:10062000C710587098786FF3C7109870D8786FF328
:10063000C710D87018796FF3C710187158796FF315
:10064000C710587198796FF3C7109871D8796FF304
:10065000C710D8710132112AD8D1D8F80030984784
:100660000390002302934FF04C0A42E04FF0010E3A
:100670001427B54238D8CDF804B0334676469E46A6
:100680002AE04FF0010E1427F3E7425C42F08002AB
:10069000425402F07F0202EB0709B9F14C0F0FDD63
:1006A000425C6AF30602425401339BB29C420FD370
:1006B00019461CF80320D209E7D0002EF4D0E4E755
:1006C0003A4410F8019062F3060900F80190EBE754
:1006D0000135ADB2AE4507D3A345F9D8019B5B4ABE
:1006E00002EBC50C6046E3E7029B013302930A2B41
:1006F00064D09DF80890D8F82830484698470128DB
:1007000005D0D8F82830484698470228ECD1D8F8C8
:100710000C30484698470446D8F810304846984769
:10072000074600EB00134A4A82FB0325DB17C3EBA5
:1007300025250194E300474A82FB03241C44DB1770
:10074000C3EBA424D8F8183048469847D8F80830A6
:1007500048469847002814BF11230423AEB2F51A67
:1007600025EAE575ADB21E44102EA8BF1026B6B21C
:10077000A4B2E21A22EAE2721FFA82FB1C44072C9E
:10078000A8BF0724A4B2D8F8083048469847019B70
:10079000A3F146091FFA89F9B9F56B7F3FF666AFF9
:1007A0009A2F7FF66EAF002814BF14270127002868
:1007B00014BF4FF0010E4FF0000E5AE70026234FF2
:1007C0001FE0043AE55C62F30605E55404E0013AF3
:1007D000E55C62F30605E5540133082B0ED0C25CDC
:1007E000D209F9D1C25C02F07F02122AEFD8032AA3
:1007F000E7D8E25C6FF30602E254EDE70136112E12
:1008000004D0002307EBC6000446E8E7039B1BB1B6
:10081000002421460D4D05E0FFF7E8FEF8E701341E
:10082000112C0DD0002305EBC400C25C02F07F0246
:10083000092A84BF013189B20133082BF5D1EEE7D3
:10084000024BA3F8881005B0BDE8F08F54250020B6
:10085000B5814E1B49D6B9F22DE9F04F83B006465B
:10086000019114460368984770B13E4A92F88A3065
:10087000013382F88A30A146002C5ED00027B846AA
:100880009346DFF8E8A037E0FFF7B0FE4FF000082E
:10089000019B83F8008055E0F3682046984740B3F9
:1008A00033692046984720B3F368204698470546A9
:1008B00033692046984700EB00108AFB0023C017DD
:1008C000C0EB232080B2ED00274B83FB05232B4494
:1008D000ED17C5EBA325ADB20BEBC000435D03F0F4
:1008E0007F03122B05D808F101085FFA88F8019BF5
:1008F0001C7001374F4510D0FCB2B36A20469847B0
:100900000128C9D0B36A204698470228C4D0B36AE8
:10091000204698470328ECD1BEE7B8F1000F0CD071
:10092000104BB3F88830442B10D8B8F1010F09D020
:1009300012D90023019A137004E04FF00008019BC4
:1009400083F80080404603B0BDE8F08F4FF0000808
:10095000019B83F80080F5E74FF00008019B83F8C6
:100960000080EFE75425002049D6B9F2B5814E1B2F
:10097000431E9BB24FF6FD7293421BD84B1E9BB297
:10098000934219D801EB01110C4B83FB0131090A89
:10099000C0000B4B83FB00231844C0F38F20094B8E
:1009A00003EBC101085C00F07F0013288CBF00201E
:1009B000012070470120704701207047B5814E1B10
:1009C00049D6B9F254250020F8B506460F4C2568E3
:1009D000238903EB83035B00F4336B8006F04AF951
:1009E0000435238903EB830307690A22314605EBAB
:1009F0004300B847238901339BB223812268527890
:100A00009A4201D800222281F8BD00BFE0250020D3
:100A1000704708B5FFF7D8FF08BD10B5044606F0CB
:100A200029F9C3684FF44472002120469847034BCC
:100A30001C60462363700A23237010BDE02500204C
:100A400030B5A5B00446436898474F4B1B7913F067
:100A5000030F09D0A368984710F0080F21D1A368AD
:100A6000984710F0040F1CD1474B1B7913F00C0F63
:100A700009D0A368984710F0020F41D1A3689847A6
:100A800010F0010F3CD1A36898473F4D2871E368EF
:100A900004A89847BDF81830EB8000236B8125B07F
:100AA00030BD002501950295ADF80C5006F0E2F836
:100AB000C3680A22294601A898479DF804300222FB
:100AC00062F302038DF80430E36810A89847BDF87C
:100AD0000430BDF8462062F30F13ADF80430E3682C
:100AE0000CA89847BDF83E30ADF80630E36808A87A
:100AF00098470B9BADF8083001A8FFF765FFB3E7F7
:100B0000002501950295ADF80C5006F0B3F8C368C6
:100B10000A22294601A898479DF80430032262F36F
:100B200002038DF8043063689847BDF804300288EA
:100B300062F30B13ADF80430134A52891209C3F360
:100B4000072362F307138DF80530E36820A8984760
:100B5000BDF88230ADF80630E3681CA89847BDF8B0
:100B60007030ADF80830E36818A89847BDF86E30CB
:100B7000ADF80A30E36814A89847179BADF80C301D
:100B800001A8FFF721FF7EE7E02500202DE9F04FC7
:100B9000A9B0044643689847A368984710F0080F27
:100BA00004D1A368984710F0040F39D02368984700
:100BB00043689847054600F06CFA80B1236898476F
:100BC000436898478146002704970597ADF8187049
:100BD00002460A2104A800F048FAB846EEE028468A
:100BE00000F05BFA0028E9D163689847B0F86030FC
:100BF000002B40F07381B84BDD880135E36818A8FD
:100C00009847BDF868309D4200F0D781E3680EA890
:100C10009847B14BBDF84020DA805A8901325A8199
:100C200029B0BDE8F08FF368284698473369284615
:100C300098472368984743689847834600F035FAF9
:100C4000B0F1000AC0F2448163689847C388ADF8E8
:100C50000830636898470389ADF80A30636898479D
:100C60004388BDF808201344ADF80C3063689847FA
:100C70008388BDF80A201344ADF80E305FFA8AFA73
:100C8000DBF80C30504698470190DBF810305046A6
:100C9000984702AA0146019800F0C0F9002840F0E8
:100CA00019814FF4C973ADF8083040F66A03ADF806
:100CB0000A3040F2A623ADF80C3040F62413ADF80C
:100CC0000E30DBF80C30504698470190DBF81030BE
:100CD0005046984702AA0146019800F09FF900305B
:100CE00018BF01209DF8223060F345138DF82230A3
:100CF0006368984790F86330C3F302039DF824209B
:100D000063F302028DF824206368984790F866A088
:100D10000AF0FD0A6369984701280ED14AF0020AD9
:100D20006368984790F86830FF2B06D0636898474F
:100D300090F86830013380F868306368984780F82D
:100D400066A063689847BDF8243090F8662062F387
:100D5000C803ADF82430B368284698479DF825307D
:100D600060F382038DF82530B369284698471F2821
:100D700028BF1F20BDF8223060F38A13ADF822305F
:100D8000F369284698471F2828BF1F209DF8233065
:100D900060F3C7038DF82330336A28469847C0F3C1
:100DA0008F001F2828BF1F209DF8253060F3C70340
:100DB0008DF8253007A8FFF707FE0137D9F8003076
:100DC0009847FBB28342BFF40FAFFBB228AA13448B
:100DD00013F8905CCDF81C80CDF82080ADF824800D
:100DE000D9F8283028469847012805D0D9F8283066
:100DF000284698470328E0D12368984743689847D6
:100E00000646E3680AA89847BDF82CA005F032FF13
:100E1000C3680A22414607A898479DF81C306FF323
:100E200002038DF81C30B36A28469847012814BF86
:100E3000002001209DF81C3060F3C3038DF81C30A6
:100E4000BDF81C30BDF82E2062F30F13ADF81C3036
:100E50004FEA1A129DF81E3062F303038DF81E301C
:100E60009DF820306AF303038DF82030F36828469C
:100E70009847BDF81E3060F30F13ADF81E3033698C
:100E800028469847BDF8203060F30F13ADF82030A6
:100E9000236912A898479DF822309DF8482062F3F4
:100EA00001038DF82230736A284698479DF8223056
:100EB00060F383038DF8223003F00C030C2B7FF4D6
:100EC000B2AE9DF8223043F00C038DF82230AAE632
:100ED000404607E7012005E7E025002000230A93AC
:100EE0000B93ADF83030236898474368984706461F
:100EF00000F0DBF8051E4FDB05F0BCFEC3680A22DC
:100F000000210AA898479DF82830012262F30203C5
:100F10008DF82830E36814A89847BDF82830BDF84C
:100F2000562062F30F13ADF828306368984790F8A5
:100F3000603013F0020F3AD16368984790F8603040
:100F400013F0040F35D16368984790F8603013F0C0
:100F5000080F30D16368984790F8603013F0100F95
:100F600014BF062200229DF82A3062F303038DF895
:100F70002A30EDB2F36828469847BDF82A3060F36E
:100F80000F13ADF82A30336928469847BDF82C3046
:100F900060F30F13ADF82C300AA8FFF715FD636856
:100FA00098470023A0F860301B4A538123E60122B2
:100FB000D9E70422D7E70522D5E700250A950B9546
:100FC000ADF8305005F056FEC3680A2229460AA83B
:100FD00098479DF82830042262F302038DF82830E8
:100FE000E36824A89847BDF82830BDF8962062F33E
:100FF0000F13ADF82830E36820A89847BDF88E306D
:10100000ADF82A30E3681CA898471F9BADF82C3038
:101010000AA8FFF7D9FCF9E5E0250020134672B1D4
:10102000128882420DD89A8882420CD3DA888A428A
:101030000BD3588888428CBF0020012070470020C5
:10104000704700207047002070470020704710B59F
:101050000446084611460023224600F0BBF9002151
:10106000204600F0E4F9C0B210BD08B5002300F03E
:10107000B1F908BD08B500F0ADF908BD08B500210B
:1010800000F0D5F9C0B208BD08B500F0D0F9C0B283
:1010900008BD08B500F076F908BD08B500F086F97E
:1010A00008BD08B500F05AF908BD08B500F0E6F92A
:1010B00008BD000010B5436898470488003418BF85
:1010C000012405F0D7FD83682246032102209847BA
:1010D00005F0D0FD8368224603210420984710BD07
:1010E000F8B507460F4B1B68BBB1002425460D4ED3
:1010F00056F8253053B156F82530984703682BB180
:1011000056F8253098470368384698470134E4B2CA
:10111000254656F82430002BEAD13846FFF7CAFF9F
:10112000F8BD00BF2C100020F8B50746124B1B6815
:10113000F3B100242546104E56F825308BB156F8F1
:101140002530984743683846984750B156F82530BF
:101150009847C3682BB156F825309847C36838467E
:1011600098470134E4B2254656F82430002BE3D1E9
:101170003846FFF79FFFF8BD2C1000202DE9F04105
:1011800007461A4B1B68002B2DD000242646174D0E
:1011900005E00134E4B2264655F824301BB355F877
:1011A0002630002BF5D055F826309847436838464E
:1011B00098470028EDD055F82630984790F81480CD
:1011C000BB68984718EA000FE3D055F826309847D7
:1011D0008368002BDDD055F8263098478368384661
:1011E00098470028D5D0BDE8F08100BF2C10002022
:1011F0002DE9F04107461C4B1B68002B32D0002420
:101200002646194D05E00134E4B2264655F824304F
:101210002BB355F82630002BF5D055F826309847DB
:101220004368384698470028EDD055F8263098474F
:1012300090F81480BB68984718EA000FE3D055F87F
:10124000263098470369002BDDD055F826309847A3
:101250000369384698470028D5D0012000E00020D7
:10126000BDE8F0810020FBE72C10002008B54368A2
:1012700098470078C0F3400008BD704730B587B08C
:101280000446036898474368984702461F4903A8E5
:1012900000F0D9FE9DF8153013F0020F2ED0BDF8E6
:1012A0000C30CD3B9BB240F29D22934229D8BDF831
:1012B0000E2040F6B7039A4225D99DF81430043B1E
:1012C000DBB2382B01D9002019E0002301930293EF
:1012D0004FF00203012565F387138DF8043005F004
:1012E000C9FC436801A898476368984790F8603044
:1012F00043F0020380F86030284600E0002007B089
:1013000030BD0020FBE70020F9E700BFEC250020FE
:1013100008B540F2411354224021024800F07EFEFD
:1013200008BD00BFEC25002000487047BCE3010069
:1013300010B51446012802D0022805D010BD1A4667
:10134000204601F04DF8F9E71946104601F006F87D
:10135000F4E70148704700BFD4E3010038B5054603
:101360000368984748B10024AB68E0B29847034649
:1013700030B901340A2CF7D100E00023184638BDFB
:101380000123FBE738B505460368984750B10024B0
:10139000AB6AE0B29847012806D001340A2CF7D195
:1013A000002000E0002038BD0120FCE738B50546EC
:1013B0000368984750B10024AB6AE0B2984703280D
:1013C00006D001340A2CF7D1002000E0002038BDFF
:1013D0000120FCE72DE9F84F8246894616469846DB
:1013E00000252F4609E07B1CDBB20AF807404B457D
:1013F0001BD01F4601350A2D17D0ECB2B36A204628
:1014000098470028F6D0F36820469847834633690A
:1014100020469847B8F1000FE5D0424601465846AD
:10142000FFF7FCFD0028DED1E4E7BDE8F88F2DE9E9
:10143000F843074688460024264604E00136F6B203
:1014400001340A2C17D0E5B2BB6A28469847002819
:10145000F6D0FB682846984781463B69284698475E
:10146000B8F1000FEAD0424601464846FFF7D6FDE4
:101470000028E3D1E4E770B2BDE8F88338B505464B
:101480000368984760B10024AB6AE0B2984728B976
:1014900001340A2CF8D14FF0FF3038BD60B2FCE7C0
:1014A0004FF0FF30F9E7000008B54368984700782F
:1014B000C0F3C00008BD064B46221A809B225A800A
:1014C00040F2F2329A8040F6D902DA80704700BFCB
:1014D00008260020F0B585B0044643699847244D9E
:1014E000A8762368984743689847024605F10801A3
:1014F00002A800F068FC9DF80830022B03D00025FC
:10150000284605B0F0BDBDF80A70BDF80C602A464B
:1015100031463846FFF782FD05460028F0D000230B
:10152000009301934FF00203042262F38503012527
:1015300065F387138DF8003047FA02F38DF8023017
:1015400046FA02F38DF8033006F00F0646EA071656
:101550008DF8046005F08EFB436868469847636821
:10156000984790F8603043F0080380F86030C7E790
:101570000826002030B585B00C4C46250395642321
:1015800002931E230193032200921223012104F1EE
:10159000080000F0F1FB25809B23638040F2F233CA
:1015A000A38040F6D903E38005B030BD08260020B3
:1015B00000487047DCE3010008B5436898470378AA
:1015C00013F0240F14BF0120002008BD38B5436874
:1015D0009847C58804894188294482882244034B5E
:1015E0005D809C80D9801A8138BD00BF40260020D4
:1015F0002DE9F04784B08046436898470378C3F3E9
:101600008009C3F34017D8F8143098473F4D85F848
:101610002600D8F80030984743689847024605F1FD
:10162000140102A800F0CFFB9DF808A0BDF80A60E5
:10163000BDF80C40AA1C21463046FFF7EFFC30BB3A
:1016400005F10A0221463046FFF7E8FC0346002870
:101650005AD1184604B0BDE8F0872C4B1A7000230D
:10166000F7E71FB3294B1B78012B1FD00023F0E7AE
:10167000D8F80430984790F8603043F0040380F8BD
:1016800060300123E5E70023E3E70023E1E70022E0
:10169000BAF1010FE1D0BAF1020FF4D1B9F1000FA4
:1016A000DFD01FB9194B1B78002BEED1002301931B
:1016B0004FF00203012262F3850362F387138DF872
:1016C0000030124D2B788DF8013033118DF8023037
:1016D00023118DF8033004F00F0444EA06168DF848
:1016E000046005F0C7FA4368684698472B78002BDA
:1016F000BED0D8F80430984790F8603043F020030B
:1017000080F860300123A4E70122C1E740260020D1
:1017100030B587B00546036904A898479DF8133093
:1017200053BB254C462303935D230293242301934B
:101730000523009312230222114604F1140000F045
:101740001BFB6B689847C588018942882A448388B7
:101750000B446580A180E28023819B22164B4621A9
:1017600059819A8140F2F232DA8140F6D9021A8226
:1017700000221A7007B030BD0F4C0A2303935D237B
:1017800002932423019307230093122303220221AF
:1017900004F1140000F0F0FA6B689847C5880189DD
:1017A00042882A4483880B446580A180E28023819B
:1017B00040F2DE42D2E700BF4026002000487047DA
:1017C000F4E3010070B50646002425467368984787
:1017D000204445760134182CF8D170BDF8B5036863
:1017E00098474368984705460C4CC368A07A9847C9
:1017F00006462B69A07A98470746AB6AA07A9847B5
:10180000022801D00020F8BD04F114023946304608
:10181000FFF704FC003018BF0120F4E78426002005
:1018200038B5044643689847037D012B0CBF01215E
:101830000321244800F0D1FC63689847B0F84B407E
:1018400040F2A513002C18BF23461E4A9382B0F81D
:101850004D1040F2D573002918BF0B46D382B0F863
:101860004F2040F29323002A18BF1346154D2B83B7
:10187000B0F8513040F6C200002B18BF18466883FC
:101880009CB1503CA4B20F48848389B1503989B2CD
:101890000C48C1837AB1503292B20A490A846BB1C2
:1018A00050339BB2074A538438BD40F25514EAE7DF
:1018B00040F28571ECE740F2E322EEE740F61213C6
:1018C000F0E700BF842600202DE9F04F8DB00646DA
:1018D00003689847436898470446914901F1140307
:1018E000024609A800F088FCBDF824300093BDF83A
:1018F00026A09DF82D509DF82EB0BBF1010F13D0FE
:10190000874B93F82430012B40F00881A36A2846C6
:10191000984703280DD060B102283DD0BBF1010FDC
:1019200000F0C080002433E07D4B012283F82420A6
:10193000ECE77B4B002483F8244083F825403046B5
:10194000FFF740FF0494022343F00C02012464F3E8
:1019500087128DF80C208DF80D30009A13118DF838
:101960000E304FEA2A138DF80F300AF00F0A4AEAB8
:10197000021A8DF810A005F07DF9436803A8984776
:101980007368984790F8603043F0100380F8603037
:1019900020460DB0BDE8F08F614B93F82530002B49
:1019A000BCD1E368284698470746236928469847EC
:1019B0005C4A01463846FFF731FB60BB0121584BBA
:1019C00083F82510002304934FF00203032262F3EF
:1019D000850361F387138DF80C308DF80D20009A84
:1019E00013118DF80E304FEA2A138DF80F300AF0DC
:1019F0000F0343EA02138DF8103005F03BF94368FA
:101A000003A898477368984790F8603043F0100334
:101A100080F8603082E700270397049705970697C0
:101A20000797089716234FF00109CDF804A09A46AE
:101A300024E00135102D19D07C19A4B233689847E1
:101A400003680320984703684146E8B29847822814
:101A5000EFDD0CAB03EBD40304F0070409FA04F444
:101A600013F8242C144303F8244CE2E71037BFB2D8
:101A70000AF1010A1FFA8AFAC02F03D000255FFA83
:101A80008AF8D9E7DDF804A003AF0DF124083C463D
:101A9000E51B7368984714F8013B28444376A0453A
:101AA000F6D13BE7204ABDF82A10BDF82800FFF721
:101AB000B5FA044600283FF46BAF73689847027D7F
:101AC000012A14BF00220122002304934FF00203D5
:101AD000032161F38503012464F387138DF80C302F
:101AE0008DF80D20009A13118DF80E304FEA2A134D
:101AF0008DF80F300AF00F0343EA02138DF810300F
:101B000005F0B8F8436803A898477368984790F8B9
:101B1000603043F0100380F8603039E7002437E785
:101B200084260020A02600209826002010B54368B7
:101B300098470478C4F300140CB9204610BD05F092
:101B400099F883680122032110469847F5E770B59C
:101B5000044643689847037D012B114E4FF0500314
:101B60000CBF012203221946304600F038FB002545
:101B700086F8245086F825502046FFF723FE636838
:101B8000984710234375636898470C2383756368EF
:101B900098471823C37563689847057670BD00BFE2
:101BA00084260020004870470CE4010010B504466C
:101BB000028B038A9A4202D90123C375037594F8F4
:101BC0002730012B12D0A37C012B14D0A27D0D4B0A
:101BD00053F8223020469847012811D0022814BF1C
:101BE00000200220A38D0133A38510BD0423E375DB
:101BF00001232375E7E70523E37501232375E5E753
:101C00000120EFE740100020C289B0F91A30B0F986
:101C100022105B1A002BB8BF5B42934218DCB0F96C
:101C20001C30B0F924105B1A002BB8BF5B429A42FB
:101C300010DBB0F9282043889A4207DCB0F92C3039
:101C400040898342CCBF00200120704700207047AC
:101C5000002070470020704770B5044690F8265069
:101C6000012D05D9AB1EDBB2012B08D9002070BDB8
:101C7000012303750020A0750323E375F7E7068DA4
:101C8000013636B20685FFF7BFFF08B90123237579
:101C9000032D01D00020EAE723889E42BCBF012328
:101CA000237563889E42C4BF012323750023A37557
:101CB000627D237B9A4201D00020D8E7B4F92A3014
:101CC000A2889342BCBF01222275E2889342C4BF1E
:101CD00001232375B4F92C3022899342BCBF012221
:101CE000227562899342C4BF012323750023638553
:101CF000237D4BB100202075A685E38B6383238C65
:101D0000A38301236375B2E7002363750220AEE766
:101D100010B5044690F8263023B9438D013343852E
:101D2000002010BD012B25D1FFF76EFF18B902234B
:101D3000E3750123237501222285637D1344DBB201
:101D40006375A275B4F92210E183B4F924202284CA
:101D50003BB1237D2BB9607D012814BF00200120F9
:101D6000DFE7002020750123A38560856183A283BE
:101D70006375F0E70020D4E730B4BDF80850BDF833
:101D80000C400280438001FB02F292B2AB1A8380C6
:101D9000A21AC280058144810173BDF81030C3814D
:101DA000BDF8143003820023037543754385838592
:101DB0000385C3754FF6FF7242838283C283028418
:101DC000837530BC7047F0B585B005460C461646A5
:101DD000002301930293ADF80C30898B608BFEF7E2
:101DE000C7FDD0B10A2201A93046FEF735FD012812
:101DF00022D90023237563756385A3852385E37545
:101E00004FF6FF726283A283E2832284A3752B7054
:101E10006B80AB80284605B0F0BD00232375637549
:101E20006385A3852385E3754FF6FF726283A283E2
:101E3000E2832284A375D5E79DF8047000B3F368AC
:101E4000384698476084336938469847A084B36A17
:101E50003846984784F82600B36938469847208367
:101E60003046FFF71EF9A0B9002384F8273020463A
:101E7000FFF79CFE628BA38B28706A80AB80C9E75A
:101E80004FF6FF736384A384002384F826302383F2
:101E9000E6E7012384F82730E9E700BF70B5044680
:101EA0000E4615788B6A28469847012801D00120F4
:101EB00070BD002323806380A380E380238163813E
:101EC000A381E38123746374227E02F0F80263F33A
:101ED000C3022276F36828469847A08133692846D2
:101EE0009847E081237C01332374E0E72DE9F0413A
:101EF00004460F461678CB683046984780463B69C3
:101F0000304698470546BB6A30469847032841D07B
:101F1000A389A8EB03031BB22380B4F902209A42E1
:101F2000B8BF1A4616466280B4F904709F42A8BF33
:101F30001F46A780E089281A00B2E080B4F9082083
:101F40008242B8BF02462281B4F90A108142A8BF7A
:101F500001466181B4F9125001EB050C604553DA7A
:101F6000491B884250DD521B904203DC227E42F026
:101F700002022276EA1993424BDA7F1BBB4248DD0C
:101F8000721B9342DEBF237E43F0080323760120B9
:101F9000BDE8F08100232374B4F90020E38A9A425B
:101FA00022DB217E01F00801002914BF002010204F
:101FB00059428A4206DC227E12F0040F04BF40F030
:101FC0000800C0B2B4F9062093420FDC237E13F060
:101FD000020F0BD140F00400C0B29142D8DB237E47
:101FE00013F0010F08D0D3E70020E1E7914207DBAF
:101FF000237E13F0010F03D140F00200C0B2C7E707
:10200000002808BF0120C3E7217E41F001012176AD
:10201000A9E7227E42F004022276B1E74182828261
:10202000C3820023038043808380C3800381438174
:102030008381C38103744374027E02F0F80263F368
:10204000C302027670472DE9F04186B004460D4682
:10205000164600238DF81730314903AA03C982E8D8
:10206000030000930193ADF808300A226946304618
:10207000FEF7EDFF80469DF800708DF81770B36A8B
:1020800038469847002831D0B8F1010F2ED1B369F6
:1020900038469847AB8A834228D3B3683846984776
:1020A00020BBF3689DF817009847804633699DF878
:1020B0001700984707462B7C06AA02EB830353F8C8
:1020C0000C3C0DF11702314628469847A989EA8948
:1020D0006B7C5E1C6E7421806280A4F80480E780B3
:1020E00023726072204606B0BDE8F08100232B8089
:1020F0006B80AB80EB802B816B81AB81EB812B7490
:102100006B742A7E02F0F80263F3C3022A762380FE
:102110006380A380E380237201236372E2E700BF40
:1021200024E4010070B504460E4615468B6A10463D
:102130009847012801D0002070BD0023237223801E
:102140006380A380E3806372A372E372F36828461E
:10215000984720803369284698476080A572637A43
:1021600001336372E7E7F8B504460E4615468B6AFD
:10217000104698470746F36828469847A080336979
:1021800028469847E080238A9BB9A289B4F9003099
:10219000B4F904105B1A002BB8BF5B42934213DC06
:1021A000B4F9023000B2181A0028B8BF4042824287
:1021B0000ADB227AE3899A4209D300236372E07A28
:1021C000B0FA80F04009F8BD0123E372F1E7032F74
:1021D0004FF0000008BF6072F5E7C1817047818150
:1021E000C281038200230372038043808380C38003
:1021F00043728372C37270472DE9F04186B0044682
:102200000D4617461E460023036043608360039318
:102210000493ADF814300B8A3288D21AADF804203A
:102220007288D21AADF80620B2881A44ADF8082098
:10223000F2881344ADF80A3001A93846FEF724FFAE
:10224000804631463846FEF71FFFB8F1010F0DD02A
:10225000AA7A00236B7223806380A380E3802372B9
:102260006272A372204606B0BDE8F08108B900236F
:102270002B7201AB3A460A2103A8FEF7FBFE6A7AED
:102280000D4B53F822309DF80C20394628469847CC
:10229000B5F800C06F88AE88E9882B7AAA7A03F176
:1022A000010E85F808E0A4F800C06780A680E180F0
:1022B00023726272A072D5E748100020014B188883
:1022C000704700BFAC2600200A207047024B5B68B5
:1022D00003EB0010807B7047AC260020024B5B684C
:1022E0000001185C704700BFAC260020024B5B6801
:1022F00003EB001040887047AC260020024B5B685F
:1023000003EB001080887047AC260020024B5B680E
:1023100003EB0010C0887047AC260020024B5B68BE
:1023200003EB001000897047AC260020024B5B686D
:1023300003EB001040897047AC260020024B5B681D
:1023400003EB001080897047AC260020024B5B68CD
:1023500003EB001040787047AC260020014B198039
:1023600058607047AC260020004870472CE40100FC
:10237000C0F10F0000EB001001EB4000024B1B68A6
:1023800033F91000704700BFB4260020C0F10F00E1
:1023900000EB001001EB4000024B5B6833F91000CA
:1023A000704700BFB4260020C0F10F0000EB001002
:1023B00001EB4000024B9B6833F91000704700BFEF
:1023C000B4260020C0F10F0000EB001001EB40002C
:1023D000024BDB6833F91000704700BFB4260020C1
:1023E000014B43F821007047B4260020014B03EB5A
:1023F0008000704758E40100704700BF2DE9F043AA
:10240000054683B0092002F005FC80460A2002F050
:1024100001FC07460DF060FE0446194E98F80000D6
:10242000184902F009FCDFF86C9032462046002182
:1024300003F054FCEDB298F80000134902F0FCFBE5
:102440002B4642462046494600960FF06FF93878F1
:102450000E4902F0F1FB32462046002103F0F4FF62
:1024600038780B4902F0E8FB00962B463A4609F112
:10247000240120460FF0A8F903B0BDE8F08300BFA7
:10248000D14C0000C15E0000855E0000A96600001E
:10249000B1650000500E002030B50024134B144DE0
:1024A00083B01A6829466320009400F00BFD0120D8
:1024B000FFF7A4FF0F4B29461A68632000F002FDC6
:1024C000012320468DF80030009BDAB262F307004A
:1024D000C3F3072262F30F20C3F3074262F31740EE
:1024E0001B0E63F31F6003B030BD00BFA0040020CB
:1024F000A4A30100A404002038B50B4B0B491A68B3
:10250000632000F0DFFC0A4C04F1180554F8043B8A
:102510001B699847AC42F9D1064B04491A686320FD
:10252000BDE8384000F0CEBCA0040020E0A30100CC
:1025300028000020A404002010B50B4B0B4C1A6897
:102540002146632000F0BEFC094A0A4B127853F87A
:102550002230DB689847084B2146BDE810401A68D6
:10256000632000F0AFBC00BFA0040020D4A3010092
:102570005010002028000020A404002010B50B4BB0
:102580000B4C1A682146632000F09CFC0021094B8B
:10259000094A1B6811705B689847084B2146BDE8E3
:1025A00010401A68632000F08DBC00BFA00400201A
:1025B000C8A301002800002050100020A40400201F
:1025C0000023F0B5604C8DB003A8019307F046FFDF
:1025D0002378002B00F083805C4A5D4B127853F81F
:1025E00022309B689847237801909DF81B209A42DF
:1025F0006BD09DF81B30DBB2002B23700CBF022484
:102600000124544A9DF82E301178994205D09DF846
:102610002E30DBB21370002B53D09DF8243013B151
:1026200001238DF804309DF825301BB101224A4B5F
:1026300083F822209DF81330EBB9444B1B78032B11
:102640001CD0012C1FD0022C31D09DF80420002A70
:102650004AD10020019BDAB262F30700C3F30722DC
:1026600062F30F20C3F3074262F317401B0E63F3BC
:102670001F600DB0F0BD07F0E7FE40BB0123012C49
:102680008DF80430DFD10623304C8DF804302378E8
:10269000042BDED0042637462D4D55F82330DB6859
:1026A000984755F8273026705B689847D1E707238D
:1026B000264C8DF804302378052BCAD005263746E2
:1026C000EAE701200AF07AFBA7E7002499E71F4B0D
:1026D0001B78012BB5D804238DF80430B1E79DF8A1
:1026E0001B20002A81D177E7184C013A21780B464C
:1026F000062AAED801A050F822F000BF192700002A
:102700003127000053260000272700005326000031
:1027100091260000B926000000299AD001290CD08A
:1027200000263746B8E7032993D003263746B3E798
:1027300001298ED001263746AEE70022074816460B
:1027400002701746A8E700BF52100020501000206A
:102750002800002051100020E40D0020E00D002092
:1027600038B5114B11491A68632000F0ABFB0BF030
:10277000A3F810B90E4B1A789AB90E4C04F118054B
:1027800054F8043B1B689847AC42F9D100240A4B2B
:102790000A4A1C70126805496320BDE8384000F001
:1027A00091BB1870E9E700BFA0040020BCA30100A2
:1027B000521000202800002050100020A404002007
:1027C00030B4184D0022D5F8014001322346186874
:1027D00002EBC201294480B1586898B19868B0B141
:1027E000D868C8B1042A1BD0D1F80130013218686A
:1027F00002EBC20129440028EED120681860586815
:102800000028EBD16068586098680028E8D1A0687B
:102810009860D8680028E5D1E068042AD860E3D140
:1028200030BC70474004002030B4184D0022D5F869
:10283000014001322346186802EBC201294480B1ED
:10284000586898B19868B0B1D868C8B1042A1BD04C
:10285000D1F801300132186802EBC2012944002886
:10286000EED12068186058680028EBD16068586085
:1028700098680028E8D1A0689860D8680028E5D159
:10288000E068042AD860E3D130BC704770040020AF
:1028900010B502F073F8094B1B689847084B1B688A
:1028A0009847084B1B689847BDE81040064A074BFD
:1028B000127853F822305B68184700BF14000020DC
:1028C000A80D0020700D002054100020E8AB01007E
:1028D000F0B50024A3B017AE214630462C2211AD2E
:1028E000CDE91144CDE913441594ADF8584017F0E3
:1028F00020FC0BABCDE90333CDE90844CDE9064418
:10290000CDE90056074F05930EA80C940B94CDF813
:1029100033402B463C682A46029029460B20A047AC
:1029200023B0F0BDBC2700200B4A08B512780B4B32
:1029300053F82230DB689847FFF7CAFF084B1B6942
:102940009847084B1B699847074B1B699847BDE898
:10295000084001F0AFBF00BF54100020E8AB0100F9
:1029600014000020A80D0020700D002070B5054651
:102970008AB008F023F8022D24D0032D20D0012D99
:10298000044614BF04460024274D2B78A34215D0DB
:1029900001A807F063FD2B78012B15D0234E56F8C4
:1029A0002330DB68984756F824302C705B689847D2
:1029B00028780AB0BDE8704008F006B80AB070BDCB
:1029C0000224E1E70124DFE7002CE7D19DF826305F
:1029D0009BB90AF071FFD8B100242A78134B53F841
:1029E0002230DB689847124B2C705B689847224670
:1029F0001049642000F066FADAE70AF01FF904468D
:102A00000AF0B0F80AF058FF0028E5D1002CE3D115
:102A10000024FFF789FF2C70FFF73AFF2246064992
:102A2000642000F04FFAC3E754100020E8AB010027
:102A30001400002094AB0100C0AB01002DE9F04769
:102A400090B007F0E7FC07A807F008FD584A594B7B
:102A50001278594D53F822309B6898470690C0F37E
:102A60000729C0F3074404F08BF807F0B7FF2A7872
:102A70009DF8223082469A4206D09DF8220005F049
:102A8000D7FF9DF822302B70012500264B4BDFF835
:102A90004C81986805F080FA49484A4F2A462946F1
:102AA00043460390CDE901660095642000F0BEF92D
:102AB0003B6898F80020997891420FD0CDE90166E3
:102AC0002E46414A0233039200952A462946642045
:102AD00000F0ACF93B689B7888F800300DF036FECA
:102AE0003B688DF81700DB7883421BD1BAF1000FE9
:102AF00029D146BB5CB39DF83530002B9DF83430AE
:102B000018BF00243BB3002007F05EFF4FF001091F
:102B1000012C2DD074BB4846FFF728FF012010B0D0
:102B2000BDE8F087012200232848CDE90133039056
:102B30000DF1170364200092114600F077F93B680D
:102B4000D8780DF0EFFD002007F04EFF02249DF82D
:102B50003430002BD7D19DF82B30FBB99DF82330B2
:102B6000002BD5D007F02AFF0228CCD0012CD1D1E0
:102B70000FF0BEFB164B17491A68632000F0A2F94C
:102B8000FFF7D2FEFFF784FE134B12491A68632049
:102B900000F098F9012010B0BDE8F08707F00EFFB3
:102BA0000228B0D09DF82330002BB1D0DAE700BF67
:102BB00054100020E8AB01005310002074060020E0
:102BC00060AB0100A80600206CAB010088AB0100DF
:102BD000A00400204CAB0100A4040020D404002079
:102BE0002DE9F0479CB0044603A8884607F036FC60
:102BF00000235B4E9DF82320C6E90033C6E902336B
:102C00003382002A58D094F82B0094F82AA094F824
:102C10002990504594F828E03AD8A0F11D01A0F180
:102C20001007821EC9B2FFB2D2B2F14526D84B4678
:102C300014E0A3F10B04022C41D803EB031400EBC6
:102C4000440438F91450002436F914C0AC45B8BF18
:102C500026F814500133DBB29E450FD3022AE8D97F
:102C6000022F37D8A3F10B04022C47D803EB03142F
:102C700000EB440438F914500324E5E70130C0B2F6
:102C80000131013701328245C9B2FFB2D2B2CCD292
:102C90003E2200210DF1320017F04BFA002340F6DE
:102CA0000115822400961A460CA91E20ADF830505A
:102CB0008DF8354008F040F81CB0BDE8F087DC1F07
:102CC000022C29D803EB031400EB440438F9145008
:102CD0000124B9E70229BDD8A3F10B04022C26D99F
:102CE000DC1F022C33D99C1E022CB3D803EB031437
:102CF00000EB440438F914500824A5E7DC1F022C2B
:102D00001DD99C1E022CA5D803EB031400EB440430
:102D100038F91450052497E79C1E022C9AD803EB2F
:102D2000031400EB440438F9145002248CE703EB3D
:102D3000031400EB440438F91450062484E703EB31
:102D4000031500EB4505042438F915507CE703EB27
:102D5000031400EB440438F91450072474E700BF4F
:102D600058100020F0B5204E83B0054601F1200038
:102D700014461F467160FDF785FA1C4B1C4A996882
:102D8000213037604860946060782278E37802FBF5
:102D900000F203F07F0303FB02F3164C22790B6071
:102DA000D3B2012B01D003B0F0BD7721FF221E4624
:102DB000114F397022712379FF2B10D1202229461F
:102DC000684617F087F9009B032B04EB830206DCAF
:102DD000019BD2F8052006FA03F31342EBD1052339
:102DE0003B7003B0F0BD00BF6C1A0020CC06002081
:102DF000B0080020181D00207C07002070B5154683
:102E000000F120042046DF220E4617F051FA45B1AA
:102E10003046FDF737FA2946C0F1DF02204417F0AB
:102E200047FA2046BDE87040FDF72CBAF0B5C3B0B4
:102E300004460E4615460146202202A81F4617F0FA
:102E400049F9029B032B0EDC01221D48039900EB7C
:102E50008303D3F805C002FA01F313EA0C0F02D082
:102E60000379934201D043B0F0BD4FF4807200214A
:102E700002A817F05EF900234B99DF220AA8CDE9DA
:102E8000003317F015FA0AA8FDF7FCF99DF803C006
:102E9000489B499A8DF8070063F3060C20464A9C2C
:102EA00062F3C71C3B4602A96A468DF800608DF8A4
:102EB00001508DF806408DF803C0FFF753FFD2E7AD
:102EC000181D0020F0B5C3B004460D461646014655
:102ED000202202A817F0FEF8029B032B0DDC012232
:102EE0001649039801EB8303D3F8057002FA00F347
:102EF0003B4202D00B79934201D043B0F0BD002792
:102F00004FF48072394602A817F013F93246294669
:102F100002A8CDE90077FFF771FF3B468DF8070067
:102F20006A4602A92046ADF800708DF803708DF84E
:102F300004708DF80670FFF715FFDEE7181D0020FE
:102F4000F0B585B0654601F0C3FE01F0F3FE002147
:102F5000084601F09DFBD5E9012104460027012028
:102F60000426CDE901070548234603900096722008
:102F7000FFF75CFF204605B0F0BD00BFA4AD010027
:102F80002DE9F04790F815C082B0BCF1000F2BD0AE
:102F90001C4600254FEA4C0606EB8C0603EB061692
:102FA000216294F8247084F8245094F8257084F8F1
:102FB000255094F8267084F8265094F8277084F8E9
:102FC000275094F8287084F8285094F8297084F8D1
:102FD000295094F82A7084F82A5094F82B7084F8B9
:102FE0002B503034A642DBD1BCF1000F2FD09846D5
:102FF0009146824600269AF814301BB300257700CC
:10300000DAF8003006225C5D68466110013117F085
:1030100061F89AF8142004F0010406FB0291009B69
:103020003C449B0004EB440403EB041401984B5D07
:103030004444216A00EB8000834001350B43AA42DF
:103040002362DDDC9AF815300136B342D3DC02B0DE
:10305000BDE8F0872DE9F04100241962196593F865
:10306000241083F8244093F8251083F8254093F822
:10307000261083F8264093F8271083F8274093F80A
:10308000541083F8544093F8551083F8554093F842
:10309000561083F8564093F8571083F8574093F82A
:1030A000281083F8284093F8291083F8294093F8D2
:1030B0002A1083F82A4093F82B1083F82B4093F8BA
:1030C000581083F8584093F8591083F8594093F8F2
:1030D0005A1083F85A4093F85B1083F85B40017DE7
:1030E00082B019B306461D46571E3368062213F8F0
:1030F000048068464FEA6801013116F0EBFF08F0E2
:10310000010800994FEA480290448A0002EB081235
:1031100001992A4417F8013F106A01EB81018B40A5
:1031200003431362337D0134A342DEDC02B0BDE809
:10313000F08100BF2DE9F04F95B004AFD1F8013018
:1031400004463863022100203B6101F0A1FA00210E
:103150003862084601F09CFA01F0E2FBEC46257D5E
:10316000647D804604FB05F2D01DC008ACEBC000B6
:103170008546EC46960006F10A03DB08ACEBC30C6F
:1031800004A8E54600210DF1100CC7F824C0FC622C
:10319000FE60786116F0CDFF3246FF21786A16F0A6
:1031A000C8FF042307F1400202F8043D1146012044
:1031B0007A6001F0DFFC3B699A68AB009178FB61B3
:1031C000D37812785B1A01339A4240F32F810A2395
:1031D0004FF000092E46BB626300BB60BB6A984992
:1031E0001F2B40F310811A4601FB03F103EB43133D
:1031F00002EB431303EBC33301F1404103F14043BE
:103200002031904A013341F01F018F489362C2E997
:10321000081330328242F8D1012204248B4B0192F0
:10322000CDE902930094BD6A11467B686420FD637A
:10323000FFF7FCFD3D6AFA680021284616F079FF89
:10324000FB6A002B00F0D38000234FF0405B7D63CE
:10325000BB614FF0000A01254FF4FA74BB693A696B
:103260005344137701F034FD01F064FD8BF8F35003
:10327000D6B1D7E90C3C186806EB000E10F8013BFC
:1032800003F0010252450BD15B1008EBC313B3F8F6
:1032900040201988DCF80030521A1344CCF8003072
:1032A00070450CF1040CE9D1013C8BF8F390D9D1B5
:1032B000BAF1000F02D14FF0010ACDE77A6BF9693C
:1032C000BB690A447A63BA6802339342BB61C0D1D6
:1032D00004235F4ACDE90034CDE902423D6A32461B
:1032E0002B46F96A6420FFF7A1FD7B6AD7F814A08A
:1032F000D7F828B0A5F1040CA3F1040E86B17246EC
:103300006046002350F8041F52F8045FA94238BFFA
:103310000AF803B003F1010338BF11609E42F1D1F6
:10332000FB6901349C449E44FB6AB244A342E5D14C
:103330000123484ACDE90039CDE90292FD6A7B6953
:10334000324629466420FFF771FD0423BA6A2946F4
:1033500001321446BA62404ACDE90039CDE9029201
:1033600064207B6A3246FFF761FD3E2C7FF436AF66
:10337000FB6A3546B3B100227B6A384E191F5DB136
:103380000C46002054F8043F0130A6FB03C38542DD
:103390004FEA53132360F5D1FB6901321944FB6AEC
:1033A0009342ECD1002400222D496420FFF78AFDCE
:1033B0000122284B642003937B69CDE901440092EC
:1033C000FE6A2A463146FFF731FD22462549642030
:1033D000FFF778FD0420CDE901441F4B2A460393F3
:1033E0007B6A314600906420FFF720FD23E0184BF4
:1033F00032460393F96A0094CDE9011164203B6AD7
:10340000FFF714FD94E7BB6A1A4601FB03F103EBD7
:10341000431302EB43130B4A03EBC3330A48936293
:10342000C2E9081330328242F8D1F5E600220E4993
:103430006420FFF747FD4437BD46BDE8F08F00BF6D
:10344000208410029800046098060460DCAC01003F
:10345000E8AC0100FCAC010008AD0100D34D6210E6
:1034600014AD010028AD010038AD01002DE9F04395
:10347000437D8646007DF3B1002601F1FF3C0F49F4
:103480004FEA430898B16446DEF80020871812F826
:10349000019B14F8015F09F00103334403EB43037C
:1034A00001EB031303EB59039742DD73EFD10236AF
:1034B00046458444E6D1BDE8F08300BF980004602F
:1034C00070B5644684B0DCF800000E460125FFF7B5
:1034D000CDFFD4E901210020054CCDE901003346A0
:1034E000009503946420FFF7A1FC04B070BD00BFF9
:1034F000A8AC0100427D02B3F0B40026037DDFF8E2
:103500003CC0ABB100247700056806FB03122D5DBB
:1035100005F001033B4403EB43030CEB031303EB04
:103520005503DB7B1355037D0134A342ECDC427D64
:103530000136B242E5DCF0BC704770479800046089
:103540002DE9F04F8146A5B0049160220F460CA8EA
:10355000002116F0EEFD4FF4C0620021864816F0FF
:10356000E8FD99F81480B8F1000F21D0002301255F
:10357000D9F800607C7F9C4217DCBA7F9A4214DB4A
:10358000F25C02F0010E4FEA4E0171441F2A0DF168
:10359000900E05FA02FC0EEB011100F3578251F870
:1035A0005C2C42EA0C0241F85C2C01334345E2D129
:1035B00099F81550002D00F0598200210124D9F806
:1035C0000420A81812F8013B04FA03F3904241EAE0
:1035D0000301F7D1C1F3130200234FF0405C9DF8C3
:1035E0003E00049E9DF86E707668140C20F00F006B
:1035F00092B22043ADF83C20ADF86C209DF831200C
:1036000027F00F078DF83E0030783C436FF3C3027C
:103610008DF86E408DF85F00BDF838408DF88F0052
:103620008DF831209DF83A009DF85E2004F00304E7
:1036300020F03F0022F01F029DF86170ADF8384085
:103640008DF83A00BDF868409DF86A008DF85E205C
:103650009DF88E2063F3C30722F01F0204F00304D9
:1036600020F03F008DF88E200696ADF85C308DF886
:103670003B30ADF88C308DF86B308DF86170ADF863
:1036800068408DF86A00049E3269CCF84810002D1D
:1036900000F0CF814FF0010B4746CDE901329A4649
:1036A000354B039341F480130B932AF003031A461E
:1036B0004FF0000ED9F804C007931CF80A3004320A
:1036C0000BFA03F8C8F31308C8F30D039B00099322
:1036D000CDF814804FEA9833039CDDF818800892E7
:1036E0000A9326464FEA4E0524AB754403EB0515B5
:1036F000603D0FCD0FC60FCD0FC695E80F0086E8D1
:103700000F00019A238862F309032380002F00F041
:103710008E8102996FF000420B460F4413F8011B93
:103720008A42A8BF0A469F42F8D1D2B2E27298F804
:103730000630002B40F05B812368059A62F31F334B
:10374000236094F82E3098F8052023F01F0399F891
:10375000151084F82E304FF00003501EA385062864
:1037600000F28781DFE810F01C010901E300E100AD
:10377000DF00DD000A0000BF980004600B1F534506
:1037800040F372810CEB0A031D7994F82E300BFA8A
:1037900005F5C5F3044023F01F030343A58584F812
:1037A0002E30C5F31405BAF1030F12DD0CEB0A033A
:1037B00013F8040C94F82E300BFA00F00543C5F30F
:1037C000044023F01F030343A58584F82E30C5F37E
:1037D0001405CB1E534511DD0CEB0A03D87894F881
:1037E0002E300BFA00F00543C5F3044023F01F030D
:1037F0000343A58584F82E30C5F31405BAF1020FF2
:1038000012DD0CEB0A0313F8030C94F82E300BFABC
:1038100000F00543C5F3044023F01F030343A585CF
:1038200084F82E30C5F314058B1E534511DD0CEBC7
:103830000A03987894F82E300BFA00F00543C5F38C
:10384000044023F01F030343A58584F82E30C5F3FD
:103850001405BAF1010F08DD0CEB0A0313F8023C62
:103860000BFA03F31D43C5F31405236894F82E00E7
:1038700045EA133545F48015C5F3140320F01F0005
:10388000013940EA13405145A58584F82E000FDD2B
:103890000CEB0A035B78C1B20BFA03F32B43C3F3BF
:1038A000140321F01F0141EA1341A38584F82E106F
:1038B000BAF1000F07D0D4441CF8011C0BFA01F137
:1038C0000B43C3F3140383F4FF130B9883F4FF53E8
:1038D00094F82E1083F01F030340C3F3044021F03B
:1038E0001F010143012AA38584F82E100BD0DB436E
:1038F000E268A17BC2F31302134021F00F0242EAF7
:103900001342A381A2733034BEF1000F57D1049B40
:10391000D9F804C0D3F8048099F814704FF0010E60
:10392000DFE6002555E700257EE700259DE7013904
:10393000514540F381800CEB0A035B7894F82E101C
:103940000BFA03F3C3F3044221F01F011143A385D3
:10395000C3F3140284F82E10BAF1000F70D0D444CF
:103960001CF8013C0BFA03F313430B9AC3F3140343
:103970001340C3F31401DB4308E0404A236882EAA2
:1039800013330B9A1340C3F31401DB4394F82E2036
:10399000A18522F01F0242EA114284F82E20A7E7F7
:1039A0004FF0000294F82E30A28523F01F0343F05D
:1039B000100384F82E303034BEF1000FA7D0019AE6
:1039C00099F815302232C2F309020192039A0AF1E2
:1039D000010A60320392029A534502F122020292D6
:1039E00027DD049B99F814705B6806935DE6079BDE
:1039F0000CEB0301089B0CEB030511F8013B20685D
:103A00000BFA03F3226843EA103363F31F328D424B
:103A10002260F2D12389099A03F00303134323811F
:103A2000A37A0A9A23F03F031343A37289E6FF2285
:103A30007CE625B0BDE8F08F0022BAF1000F8ED1F0
:103A40000B9B1340C3F31401DB439FE711F8580CA1
:103A5000203A844605FA02F2C0F30100024362F301
:103A6000010C01F858CCA0E500259CE62A46294621
:103A7000B2E54FF0FF33002188E700BFFFFF0F00E2
:103A8000002900F09F802DE9F04FD1F80120ADF51D
:103A9000117D0CCA93F8009093F801B01278884613
:103AA00009EB0B0708A9064605929D7893F804A038
:103AB000DC78FFF71FFD444BF9B2481C83F829005E
:103AC00009F1010C09F1FF3083F8221083F824C0BA
:103AD00083F82500059A002A6FD1A9F10A0983F815
:103AE00027904FF00009384B4A469E460AF03F0C9B
:103AF00005F01F0004F00F0183F8289002F1140371
:103B00000EEB43039C7801326CF305049C705C88D7
:103B1000112A60F38A14C4F3072561F3C6055C809B
:103B2000DD70EBD14FF04050002280F8A720347DAB
:103B3000BCB14FF0010C3168234D013911F8013F40
:103B40001C2BEA5402F1010209DD90F8A7E01D3BAD
:103B50000CFA03F343EA0E03DBB280F8A730A2426B
:103B6000ECD1D8F801103046FFF7EAFC08A930463E
:103B7000FFF77CFCD8F8013030465968DA68C9791B
:103B8000124BFFF7FDF949F640437F000124002066
:103B90000422033793FBF7F70D490290CDE9002487
:103BA000039107AB2246214664200797FFF73EF9B1
:103BB00020460DF5117DBDE8F08F0BF1010B83F868
:103BC00027B08EE708467047000004609800046044
:103BD00094AD0100F0B50C4699B060220021074673
:103BE000684616F0A6FA30220021544816F0A1FAD1
:103BF0004FF408709DF80130626843F008038DF8B7
:103C00000130BDF80010537960F30901013BADF8B4
:103C10000010032B03D8DFE803F07F6D02024FF0A2
:103C2000FF344FF0405100209DF82E30ADF82C406D
:103C300043F01F038DF82E30C1F830014FF00133EF
:103C400000216D461278CDF813308DF82F20CDF875
:103C50001730CDF81B308DF81F30CDF80F308DF8B0
:103C60000B100CAC0FCD0FC40FCD0FC495E80F0097
:103C700084E80F003D7D3DB33C680126254407E004
:103C800052F85C3CA54243EA070342F85C3C1BD077
:103C900014F8013B03F00100420002441F2B18A856
:103CA00006FA03F700EB0212EADD12F8581C203B7B
:103CB000084606FA03F3C1F301010B4363F3010065
:103CC000A54202F8580CE3D16C461C4F0FCC0FC72D
:103CD0000FCC0FC794E80F0087E80F00184E0CAD0B
:103CE0000FCD0FC60FCD0FC695E80F0086E80F0069
:103CF00019B0F0BD4FF0FF344FF0405100209DF857
:103D00002E30ADF82C4023F01F0343F00F038DF845
:103D10002E30C1F8300191E700204FF040519DF85E
:103D20002E30ADF82C0023F01F03064843F010039B
:103D30008DF82E30C1F8300180E700BF980604608E
:103D4000C8060460FFFF0F00002900F086802DE9FF
:103D5000F84FD1F80160424AD6E900531C7893F835
:103D6000018095F800A004EB0805EDB204F101090B
:103D700093F802C093F804E0DF7805F1010B5FFAD5
:103D800089F9631E82F829B082F8225082F8253022
:103D900082F82490BAF1000F5AD10A3C82F82740E9
:103DA00000242F4B224698460EF03F0E0CF01F0CBD
:103DB00007F00F0783F8284002F1140308EB4303D0
:103DC0009C7801326EF305049C705C88112A6CF3B8
:103DD0008A14C4F3072567F3C6055C80DD70EBD158
:103DE0004FF0405500221F4C1F4B85F8A72084F848
:103DF0002F9083F82F90077DCFB14FF0010E04680C
:103E0000DFF85CC0013C14F8013F1C2B0CF80320C8
:103E100002F1010209DD95F8A7801D3B0EFA03F3BC
:103E200043EA0803DBB285F8A730BA42EBD10D466E
:103E300004463146FFF7CEFED5F8013020465968DA
:103E4000DA68C979074BFFF705F90120BDE8F88F5B
:103E500008F1010882F82780A2E70846704700BFF2
:103E60004C00046098060460C8060460F0B40025A5
:103E70004FF040530326D0F8011001248A684D7496
:103E80001778042083F82C7157784FF4C07C83F89E
:103E90002D71977983F82A71177A83F82B719778A7
:103EA00083F82E71D27883F82F21D1E90021177879
:103EB00083F8257183F88E60C9780F27491B18BFD6
:103EC000012183F8841083F8814083F8805083F8BF
:103ED000AE0083F8AF00557893F8891085EA0406A0
:103EE00066F30511022683F8891093F8A11065F393
:103EF000041183F8A11083F88D0083F8B04083F893
:103F0000C570A3F8C8C083F8CC60507A517983F8A3
:103F10000001907883F80501D07883F80A0183F8CE
:103F20000D11117983F81011117A83F8DA10D27912
:103F300083F8A020F0BC00F0FFBD00BF012138B520
:103F40004FF04053D0F80140084693F8415100F03B
:103F50009FFB637C074903EB0313EDB200EBC30047
:103F600001EB0541882216F0D9F8637C01336374B4
:103F700038BD00BF80080160D0F801305B689B79D4
:103F80004BB3F0B44FF0C04784B0DFF84CC004AE80
:103F9000002568466A463B46002153F82540883391
:103FA00042F8044B96422144F7D13C4650F8043B7A
:103FB000A1EB43035B10904244F8253004F18804E0
:103FC000F4D10135222DE4D107F508776745DFD11B
:103FD00004B0F0BC7047704780080060F0B5D0F8BE
:103FE000016085B073689B7923B34FF0C04CDFF854
:103FF000D8E004AF002568466A466346002153F8BE
:104000002540883342F8044B97422144F7D1644657
:1040100050F8043BA1EB43035B10904244F8253079
:1040200004F18804F4D10135222DE4D10CF5087C8B
:10403000F445DFD196F82170717F1FBB3A46214CC1
:104040004FF0220CA4F505050023994209DCB07F4E
:10405000984206DBF07FB84203DC96F82000B842B5
:1040600003DA44F8232045F823200133222BECD136
:10407000BCF1010CE8D10137102F04F18804DFD125
:1040800005B0F0BD00273A460E480023A0F505050F
:10409000994209DCB47F9C4206DBF47FBC4203DC1E
:1040A00096F82040BC4203DA40F8232045F823204C
:1040B0000133222BECD10137102F00F18800E4D11D
:1040C00005B0F0BD00008560800800604FF04053EF
:1040D000F0B503250021D0F80100012682680424F0
:1040E000177883F8E07092F801C00F2783F8E1C0D9
:1040F00092F802C083F8E2C092F803C083F8E3C0EC
:1041000092F806C083F8E6C0127A83F8E720426886
:1041100083F88E50D278521A18BF012283F8842077
:1041200083F8816083F8801083F8AE4083F8AF4055
:10413000026893F8891092F801C08CEA060E6EF3BB
:10414000051183F8891093F8A1106CF3041183F81A
:10415000A11083F88D4083F8B06083F8C57083F8B0
:104160008750C17F01EB4101A940A3F8C81090F826
:104170002010102928BF1021B140C9B283F8CC10FB
:10418000517A83F80011917883F80511D17883F87A
:104190000A11117983F81011117A83F8DA10D279A3
:1041A00083F8A020BDE8F04000F0C6BC4FF04053BB
:1041B000F0B403264FF0000CD0F80100012582680E
:1041C000017F147801EB410183F8E040547883F8D3
:1041D000E14097788C0083F8E270D178042783F867
:1041E000E310917983F8E610127A83F8E7204268A9
:1041F00083F88E60D278B2EB0C0218BF012283F8EC
:10420000842083F8815083F880C0026893F8891075
:10421000507880EA050C6CF305114FF00F0C83F811
:10422000891093F8A11060F3041183F8A11083F8AA
:104230008D7083F8B05083F8C5C083F88760A3F809
:10424000C84083F8CC50517A83F80011917883F8F4
:104250000511D17883F80A11117983F81011117AB8
:1042600083F8DA10D27983F8A020F0BC704700BF41
:104270002DE9F04F93B004AF07F13805654C664E59
:1042800045F8300D07F1240807F1140A94E80F00EF
:104290008AE80F0007F1600350464146CAE902561A
:1042A0007B63FBF7EDFF94E80F005C4C88E80F00A0
:1042B000404607F13401C8E90254FBF7E1FF012051
:1042C00000F0A8FC002800F09E800021E9460A4684
:1042D000BB680546D0F801005E7D1C7D0368D0F800
:1042E00004C004FB06FBC7E903465C789CF8026047
:1042F0007C604B4C597002F1140304EB4303598862
:10430000013241F4F861112A5980F4D16A460BF167
:104310000703DB08A2EBC3039D469CF8013004AC05
:1043200001695A4620463B6015F0F8FE3B68BBF138
:10433000000F09D0224604EB0B0012F8011B0431D8
:10434000824202F8011CF8D148F001024AF0010152
:10435000CDE9002101205A461946234602F02EFEDF
:10436000D7E903214FF0000A0123DFF8B88000935A
:10437000CDE901AACDF80C8023466420FEF756FD56
:10438000D7F810B0D34542DDD646D7E9020ABAF1D4
:10439000000F0EDD0023027DD5F801100EFB023266
:1043A000496914F802C0C95C013361445345A15402
:1043B000F1D10EF1010EDE45E9D12146FFF756F8A5
:1043C000D7E903214FF0000A012023460090CDE9F0
:1043D00001AA6420CDF80C80FEF728FD5246104853
:1043E00006F01F0602F1140300EB43035988013263
:1043F00066F38A11112A5980F4D1D5F801303A793F
:104400001B685A70CD463C37BD46BDE8F08FB86892
:10441000D3E700BF08A30100412F0000C134000012
:1044200000000460A8AC01002DE9F04FADF5137D4C
:1044300004AF786001200C4600F0ECFB0026D0F8B9
:104440000130D4F801201B6854685A78B8605E7057
:104450000121914607F118004FF4087294F801A069
:1044600015F067FEADF6880D0DF1100B584631467C
:104470004FF4086215F05DFEBAF1010F53DD01241F
:10448000A046384DFE60ABF1040B374E304611228A
:104490002146303615F04DFEAE42F7D101220426FA
:1044A000324B07F114000393FB681146CDE90183F9
:1044B0000096034664207C61FEF7B8FC00F008FC1F
:1044C00000F038FCFB682A4ACDE9018303924FF0E3
:1044D000C0432222102100967220FEF7A7FC594605
:1044E0004FF0C043DFF894C007F11802186851F884
:1044F000046F04338642BCBF14700860634502F148
:104500000102F3D11B4BCDF800800393FB6801340B
:10451000CDE90133222207F1180310216420FEF7B0
:1045200085FCA245B1D1786807F11801FEF79EFF1E
:1045300001240021BB681048D3F801301A6807F144
:10454000180382F80190CDE9011103902222009412
:1045500010216420FEF76AFC07F50F77BD46BDE821
:10456000F08F00BFA7060460A7000460B4AC010090
:104570004CCE0100A8AC0100C4AC01008008006072
:1045800030B585B000F0D6FB0021084600F080F879
:104590000025044604210120064ACDE901050091C9
:1045A00003922346222210217220FEF73FFC204670
:1045B00005B030BD4CCE0100012170B5044608465F
:1045C00000F066F800210546012000F061F8D4F8FB
:1045D00001202B1F147C011F05F1840653F8042FC2
:1045E00002FB04F2B3424FEAE21241F8042FF5D184
:1045F00000F1840105F5867053F8042F02FB04F2E4
:1046000098424FEAE21241F8042FF5D170BD00BF85
:10461000704700BF4FF0405393F84121002082F0D3
:10462000010283F8412193F8432182F0010283F8CB
:10463000432170474FF0405310B593F82430CBB16D
:1046400072B60E4A14689CB90D490E4B0868116089
:10465000027803EBC2035B68984701230A4A13758B
:10466000BFF34F8F4FF0405208490C721370937094
:1046700062B610BD0CF014F9E2E700BF6C10002028
:1046800094100020D8040020000010500C240020BA
:1046900001290CD007D3022903D1074B53F820007E
:1046A000704700207047054B53F820007047044BBB
:1046B00053F82000704700BFBC100020D410002029
:1046C000EC1000204FF0C04370B5584C584E594D77
:1046D000594962682360336029601AB15749201D27
:1046E00008F09EF873681BB15549564808F098F8D1
:1046F0006B681BB15449554808F092F84F4A4FF483
:104700008871534808F01CF84D4A4FF488714D48A1
:1047100008F016F84C4A4FF488714C4808F010F82D
:10472000A3681BB14B494C4808F07AF8B3681BB139
:104730004A494B4808F074F8AB681BB149494A48EC
:1047400008F06EF8434A8821434807F0F9FF434ACE
:104750008821434807F0F4FF424A8821424807F085
:10476000EFFFE3681BB14149414808F059F8F3688D
:104770001BB14049404808F053F8EB681BB13F4972
:104780003F4808F04DF8394A5021394807F0D8FF22
:10479000384A5021384807F0D3FF384A502138486A
:1047A00007F0CEFF23691BB13649374808F038F8C7
:1047B00033691BB13549364808F032F82B691BB113
:1047C0003449354808F02CF82E4A88212E4807F045
:1047D000B7FF2E4A88212E4807F0B2FF2D4A8821C4
:1047E0002D4807F0ADFF63691BB12C492C4808F038
:1047F00017F873691BB12B492B4808F011F86B6946
:104800001BB12A492A4808F00BF8244A50212448B1
:1048100007F096FF234A5021234807F091FFBDE897
:104820007040224A5021224807F08ABFD41000204D
:10483000EC100020BC10002000008560F8AD0100E5
:104840000CAE0100F010002028AE0100C0100020C6
:10485000D810002044AE0100DC10002060AE010042
:10486000F410002080AE0100C4100020A0AE0100B2
:10487000E0100020BCAE0100F8100020DCAE01000A
:10488000C8100020FCAE0100E410002018AF0100A9
:10489000FC10002038AF0100CC10002058AF010000
:1048A000E810002074AF01000011002094AF010057
:1048B000D01000202DE9F047114C124E124DDFF8B8
:1048C0004CA0DFF84C90DFF84C8004F1140754F84A
:1048D000043F1BB15146204607F0A2FF55F8043FA4
:1048E0001BB14946284607F09BFF56F8043F1BB111
:1048F0004146304607F094FFBC42E8D1BDE8F0875E
:10490000D4100020BC100020EC100020B8AD010035
:10491000C8AD0100E0AD01000048704700008460B0
:104920000048704700000230F8B516461D460446A0
:104930000F46FFF7A5F808B10F4B1F603146204620
:10494000FFF702FA08B10C4B5E60069A2946204632
:1049500001F0C4FC18B1084B069AC3E90225DDE951
:104960000712204601F0D4FC20B1034B089A1A61CB
:10497000079A5A610120F8BD741000202DE9F04F0C
:104980008DB004AF0BF0A8FB02240546B860982256
:1049900000215F4815F0CDFB5E4B2A7D2968D3F8D6
:1049A000010000945C4B00F0C9FC5C4B6A7D6968B7
:1049B000D3F801005A4B009400F0C0FC24220021DF
:1049C0005848C7F804D015F0B4FB0BF085FB437DC5
:1049D000544D1A467B612B46073202F4FC72ADEB54
:1049E000020D4268067D3A61046804AAFA60A5F1E6
:1049F00024011A7F093B42F00A0283F825208B42EA
:104A0000F7D17B69002B77D03869F9680246013904
:104A1000184412F8013BC3F12103824201F8013F1F
:104A2000F7D100F083FC814600F084FC8246002E22
:104A30006BD0A3194FF0010B984607F11806C7F881
:104A400000A014F801AB08224FEA4A01304615F0E5
:104A500041FB19F90A30B96903EBC3032B44FA6926
:104A6000585C0BFA02F20243A0455A54E9D17B6923
:104A7000D7F800A013B34FF0010B7B69FC68234407
:104A80007B613B6903F1FF3814F8011B18F8019FA3
:104A900049000822304615F01DFB1AF90930B969A2
:104AA000023303EBC303FA692B44585C01320BFA5F
:104AB00002F202435A547B69A342E5D1D7F804D0ED
:104AC0000FF0BEF90FF006FA0FF074F9FDF778FE5B
:104AD000FDF7AAFE1149144A144B0091B868144915
:104AE000CDE901320B4B134AFFF71EFFFFF7EAFD3A
:104AF0002437BD46BDE8F08F00F018FC814600F079
:104B000019FC8246002ED9D093E707F11806B2E7C8
:104B10000000046040040020E03000207004002009
:104B200048280020102900206404002018020020DA
:104B3000840A0020D00A002008B50BF0EDFD054BDB
:104B40001B78984204D01846BDE808400BF0C6BD5B
:104B500008BD00BFD404002010B50BF0DDFD0446F5
:104B60000BF0CEFD844203D0BDE810400BF0B6BD83
:104B700010BD00BF2DE9F04100248046104B0E46C9
:104B8000202221460F481C6015F0D3FAA04514DD01
:104B90002146013E0C4D0B4F06EB080C16F8014F59
:104BA0000A4B53F8042F1078A04204BF47F8212085
:104BB0000131AB42F5D16645F0D1BDE8F08100BFCF
:104BC0006C10002094100020901000207010002025
:104BD00070B50E4D2C68B4B1206803780A2B12D83A
:104BE0000B4E56F833309847636863B12B682268E0
:104BF000191D29603AB15868037806EBC30673683B
:104C00009847012070BD0020286070BD6C10002006
:104C1000D8040020074B10B403F1200453F8042FEC
:104C20001178814202D0A342F8D10022104610BC74
:104C3000704700BF70100020044B11B143F82010E2
:104C40007047034A43F82020704700BFA8040020A3
:104C50001146000070B5094C094E04F1200554F8C6
:104C6000040F03785A1E092A02D856F823309847B1
:104C7000AC42F4D1BDE87040FFF76EBF9010002049
:104C8000A804002010B572B60C4A1468A4B90C49E7
:104C90000C4B08681160027803EBC2035B6898470D
:104CA0000422094B1A75BFF34F8F4FF04053012276
:104CB00006490C721A709A7062B610BD6C10002012
:104CC00094100020D8040020000010500C24002074
:104CD000FFF7B0BCFFF7D6BF002208B5054B1A722C
:104CE0000CF074F9044B054A1A60BDE80840FFF760
:104CF000A1BC00BF0C240020B410002035460000E9
:104D000008B50CF083F9002303480449044A036002
:104D10000B60136008BD00BFB4100020B810002065
:104D200004110020024B1868003018BF01207047A2
:104D30006C10002008B5084908200BF0D1FBFFF7E4
:104D400089FF0CF063F9002304480549054A036014
:104D50000B60136008BD00BF15460000B4100020B2
:104D6000B81000200411002038B572B60CF04EF9CE
:104D700000200E490E4A0F4B08601060186062B6A2
:104D80000D4B1C6884B10D4BA3F1200553F8042989
:104D90002168914218BF5860AB42F7D1BDE8384056
:104DA000074908200BF09CBB38BD00BFB4100020A1
:104DB000B8100020041100206C100020B01000205A
:104DC0001546000008B5044908200BF089FBBDE832
:104DD0000840FFF73FBF00BF1546000008B5044973
:104DE000082015F08DFABDE80840FFF733BF00BF7B
:104DF00015460000082270B5304C314D23682A60FA
:104E0000B3B118680278022A31D05A6882B1FFF72C
:104E1000DFFE00283FD001232A4A1375BFF34F8FCE
:104E20004FF040520020284908721370937012E02E
:104E300001260020244A23491672244A0875126864
:104E40000AB1904723681868214B027853F8323032
:104E500098470023236010221E4B2A60D3F80021BC
:104E600012071CD44FF0405300225A7070BDD0F886
:104E70000120567C002EC8D1154B1B699847012391
:104E8000104A1375BFF34F8F4FF040520E490E7208
:104E900013709370DFE701220B4B1A72DBE70022DD
:104EA00008240D480D49C3F8804102704FF040536B
:104EB000C1F8402100225A7070BD00BF6C10002064
:104EC00020090020000010500C2400202C24002079
:104ED000D804002000E100E01C090020000002507E
:104EE000F0B5012A83B0164605460C461F462DDC58
:104EF0000146684615F0EEF836B3009B3F2B1D4681
:104F0000A8BF3F25019A002B134405F03F05B8BF09
:104F100000253F2B1A46A8BF3F22002B4FF000016F
:104F200002F03F03B8BF002304F1100207EB420C6C
:104F300009B30A19103207EB4202907965F30500B4
:104F400090710131B142F3DB03B0F0BD104607F0C0
:104F5000C1FB044106FB04F40F2C294606DD0122A7
:104F6000684615F0B7F80126009BC7E73246684649
:104F700015F0B0F8C1E79CF8062063F305028CF841
:104F80000620DEE7F0B5012A83B0154604460E463A
:104F90001F462DDC0146684615F09CF8009B2DB39A
:104FA0003F2B1C46A8BF3F24019A002B134404F05A
:104FB0003F04B8BF00243F2B1A46A8BF3F22002B56
:104FC0004FF0000102F03F03B8BF002306F11002CA
:104FD00007EB420CF1B18A19103207EB42029079CB
:104FE00064F30500907101318D42F3D103B0F0BD3F
:104FF000104607F06FFBF30744BF06416E4321469E
:105000002A46684654BF06F1FF36013615F062F8AD
:10501000009BC5E79CF8062063F305028CF8062088
:10502000E1E700BF30B5DCF8103085B06446984742
:10503000FFF780FED4E9023200200121042502900E
:105040000448CDE9005103907220FDF7EFFEA068FF
:1050500005B030BDD0AF010030B5DCF8103085B000
:1050600064469847FFF766FED4E90232002001212A
:10507000042502900448CDE9005103907220FDF709
:10508000D5FEA06805B030BDD0AF010030B5DCF86A
:105090000C3085B0644600259847FFF74BFE012190
:1050A0000420064AA36800900392CDE9011514225A
:1050B0007220FDF7BBFEA06805B030BDD0AF010087
:1050C00030B5DCF80C3085B0644600259847FFF712
:1050D00031FE01210420064AA36800900392CDE925
:1050E000011514227220FDF7A1FEA06805B030BDA5
:1050F000D0AF01002DE9F04F0D46CC1D890087B0DF
:1051000024F007040A3121F0070106AFADEB040DCE
:105110000DF11808ADEB010D9B4606AEBC6A9DB1C2
:105120000023013800EB050E10F8011F1AB112F828
:1051300001C008F803C01CB154F8211046F8231030
:10514000704503F10103EFD1EAB14FF0010A4FF0CE
:1051500000092B4B514603932A464346CDE901995A
:10516000CDF800A06420FDF761FEFB6AFA6AD3F86F
:1051700001301178D3E9002312780A299B7952442F
:1051800014D006292CD06CB14FF0000C012104245E
:105190001C48334603902A46CDE9011C0094642044
:1051A000FDF744FE0437BD46BDE8F08F009340F69E
:1051B0004A30CDE9036BCDE901584FF4FA734FF44F
:1051C000487102F07FF804200F4A00900392CDE965
:1051D00001995B4651462A466420FDF727FED2E737
:1051E000009340F64A30CDE9036BCDE901588223A4
:1051F0004FF4487102F066F80420044AE5E700BF66
:105200004CB0010068B0010054B0010060B0010072
:105210002DE9F04F0D46CC1D890087B024F007041E
:105220000A3121F0070106AFADEB040D0DF11808AE
:10523000002DADEB010D9B4606AEBC6A13DD0023CD
:10524000013800EB050E10F8011F1AB112F801C069
:1052500008F803C01CB154F8211046F8231070451B
:1052600003F10103EFD1EAB14FF0010A4FF0000959
:105270002A4B514603932A464346CDE90199CDF87E
:1052800000A06420FDF7D2FDFB6AFA6AD3F8013072
:105290001178D3E90023127809299B79524414D05C
:1052A00005292CD06CB14FF0000C012104241C48BE
:1052B000334603902A46CDE9011C00946420FDF793
:1052C000B5FD0437BD46BDE8F08F009340F64A3087
:1052D000CDE9036BCDE901584FF4FA734FF44871EF
:1052E00001F0F0FF04200F4A00900392CDE90199EC
:1052F0005B4651462A466420FDF798FDD2E70093AD
:1053000040F64A30CDE9036BCDE9015882234FF4D2
:10531000487101F0D7FF0420034AE5E724B00100FB
:1053200040B001002CB0010038B0010000487047C7
:10533000E030002000487047482800202DE9F04F59
:1053400085B0406804AFD7F828904578D01D20F08C
:10535000070009FB05F5ADEB000D0DF1100A0E4637
:105360005046002190461C4614F0E3FEA94540DB60
:105370004FF0000B08F1FF3922224FF0FF31204699
:1053800014F0D7FE33784FFA8BF0B8F1010FE054E8
:105390002CDD4FF0000E6FEA060C711C11F8012B8A
:1053A000A356B3F1FF3F05D1431CAB42ACBF002372
:1053B0005BB2A354984219D092FBF5F005FB102084
:1053C000012814BF01204FF0FF30204482569A423A
:1053D0000CD00CEB01029145A1EB06027BD090456D
:1053E00001DD1846DAE7BEF1000F40D1BBF1000F36
:1053F0003AD000223B496420FDF764FDB8F1000F6C
:105400005CDD013EB14606EB080119F8013F93FB54
:10541000F5F205FB12324945E254F6D10121002292
:10542000314BCDE90112039300912346424664209B
:10543000FDF7FCFC0AF1FF3316F8012FA256B14527
:1054400003F8012FF8D10121002428485346039086
:1054500042466420CDE901140091FDF7E7FC2046A7
:105460000437BD46BDE8F08F4FF0010B84E7012102
:1054700000221D4BCDE901120091039342462346C1
:105480006420013EFDF7D2FC06EB08010AF1FF3370
:1054900016F8012FA256B14203F8012FF8D10124CA
:1054A00000211248CDE90141039053466420424651
:1054B00000942146FDF7BAFC2046D1E701210020E7
:1054C000094ACDE901100392234600914246642027
:1054D000FDF7ACFCB7E79045C9DD4FF0010E18466B
:1054E0005CE700BFECAF010010B00100DCAF0100D1
:1054F0002DE9F047D2F8017006467A680D465278D9
:105500009846012A19D9002815DD00244FF04C09CE
:105510004D1E01E07B685A78510094FBF1F301FBCA
:10552000134315F8010F611009FB03830134FFF7E2
:10553000D7FCA642EED1BDE8F0870028FBDD0024B1
:105540004FF04C0ADFF8249019F904306110002B59
:1055500006DB7A680AFB03835278285DFFF7C0FCFC
:105560000134A642F0D1BDE8F08700BFE030002052
:1055700010B5644684B0DCF80420084BFFF7B8FF90
:10558000012100202368E268054CCDE9010000916B
:1055900003947220FDF74AFC04B010BD900704602C
:1055A000C4AF010010B5644684B0DCF80420084B99
:1055B000FFF79EFF012100202368E268054CCDE93A
:1055C0000100009103947220FDF730FC04B010BD7F
:1055D000C0080460C4AF01002DE9F047D2F80160B3
:1055E0001F4672685278012A1ED900281ADD4D1E06
:1055F00021244FF04C0805EB000901E073685A784C
:10560000510094FBF1F301FB134315F8010F04EB78
:10561000D47108FB03734910FFF7B4FCA94504F1EA
:10562000FF34EBD1BDE8F0870028FBDD0D464FF0DD
:105630004C0A0D4C01EB000904F1220814F9013B5E
:10564000A8EB040101EBD171002B4FEA610106DBED
:1056500072680AFB037352782878FFF793FC0135D0
:105660004D45EBD1BDE8F0874828002010B5DCF8A7
:10567000042084B0084B6446FFF7AEFF01210022EE
:1056800006482368CDE9012203900091142272207C
:10569000FDF7CCFB04B010BDF8060460C4AF0100F8
:1056A00010B5DCF8042084B0084B6446FFF794FF83
:1056B0000121002206482368CDE9012203900091D0
:1056C00014227220FDF7B2FB04B010BD280804605C
:1056D000C4AF0100F0B403268C68012527784FF091
:1056E000060C80F8E8706778002B80F8E970A778DE
:1056F000B8BF033380F8EA70E778C3F38F0380F80C
:10570000EB70A779D2B280F8EE70247A072780F880
:10571000EF4080F88E60002690F88940096844F0D8
:10572000300480F8894090F8A1406FF3041480F8A9
:10573000A1400C7880F8A94080F8985090F88B40F0
:105740006FF3000480F88B4080F88D7080F8B050C3
:1057500080F8C56080F8815080F8805080F8AEC035
:1057600080F8AF7080F884604C7A80F89F408C7A23
:1057700080F89E4080F89C60A0F8CA3080F8CD2068
:105780004B7BF0BC80F800318B7880F80531CB780A
:1057900080F80A310B7980F810310B7B80F8DA3011
:1057A00090F8A330CA7962F3061380F8A33090F81A
:1057B000A3300A7A62F3020380F8A330CB7A80F830
:1057C000A0307047D0F8011008B54A684FF4F26372
:1057D00052784FF040505200FFF77CFFBDE8084080
:1057E000FFF7BAB9D0F8011008B54A684FF40C6356
:1057F00052784FF040505200FFF76CFFBDE8084070
:10580000FFF7AAB949F64043014411440331490066
:1058100030B5012293FBF1F10025042487B007483D
:1058200006AB43F8041D0390CDE901251146009411
:105830006420FDF7FBFA07B030BD00BFB4AF010034
:105840002DE9F04F4FF04C09984609FB03F909F197
:10585000070383B023F0070300AFADEB030D7860BF
:105860003A600C4668464A46002114F062FCB8F1E2
:10587000000FEA4671DD6B465C200DEB09015A789A
:10588000187002F0EC0242F002025A704C33994256
:10589000F5D13A6814F0FF011369566964D053EAF0
:1058A00006020CBF4FF0010E4FF0000E00224FF029
:1058B000010C05E0BEF1000F10D101328A421FD069
:1058C000C2F1200506FA05F523FA02F0A2F1200440
:1058D000284326FA04F42043C007EBD54FF04C0BC5
:1058E0007868234C805C24561F280CFA00F50BFBCB
:1058F00004A425DC6069013205438A426561DFD179
:105900003B68B8F1000F5B6858780FDD00234C2529
:105910005524022807D105FB03A2D17C547421F041
:1059200001019474D17401339845F2D14A4651462D
:10593000386B14F0F3FB386B0C37BD46BDE8F08FC5
:10594000257E2038AB460CFA00F0C5F3010505436F
:1059500065F3010B84F818B0AFE73A6814F0FF0163
:10596000136956699BD1E1E73B685B685878CDE7DE
:10597000E03000202DE9F04F85B01546D0F80180C9
:105980000A7DD8F8044002AF6678086803FB06F683
:1059900003EBC30A1146334600954246FFF750FF1A
:1059A0000AF10703D8F8044023F00703C7F804D02E
:1059B000ADEB030D94F805B00DF1080948465246C9
:1059C0000021647814F0B5FBBBF1020F00F0CC802D
:1059D000BBF1040F00F0B180BBF1010F00F0838038
:1059E00052460021484614F0A4FB002E40F3DD800F
:1059F0002C464FF0000C4A460023E11812F8010B28
:105A00000133092B0872F8D10CF1010C664509F13C
:105A1000090904F14C04EEDC4FF0000E2846F14673
:105A2000D8F80480D7F804D098F8064004F01F0492
:105A300004F0030C4FEA8C1CA408002101F11003B0
:105A400000EB430393F806A0DA790AF03F0A22F04C
:105A5000070201314AEA0C0A2243112983F806A001
:105A6000DA71EBD190F84A300EF1010E23F01F03EA
:105A7000764580F8489080F8499080F84A3000F1E7
:105A80004C00DADC002398F8049098F803A098F80A
:105A900002B0504649465A469846012409EB0A0E80
:105AA0000BEB090CAEF10A0E0CF1010C5FFA8EFE45
:105AB0005FFA8CFC01339E4285F802A02C7185F8B8
:105AC00003C085F8059085F806B085F807E085F8ED
:105AD0001980AC7605F14C05ECDCFFF793FE0C3732
